{
  "address": "0xe9e0426938AB8Ae1F467638f2f6Cb5C943DEFFC7",
  "abi": [
    {
      "anonymous": false,
      "inputs": [
        {
          "indexed": true,
          "internalType": "address",
          "name": "previousOwner",
          "type": "address"
        },
        {
          "indexed": true,
          "internalType": "address",
          "name": "newOwner",
          "type": "address"
        }
      ],
      "name": "OwnershipTransferred",
      "type": "event"
    },
    {
      "anonymous": false,
      "inputs": [
        {
          "indexed": false,
          "internalType": "uint256[]",
          "name": "amounts",
          "type": "uint256[]"
        }
      ],
      "name": "Quote",
      "type": "event"
    },
    {
      "anonymous": false,
      "inputs": [
        {
          "indexed": false,
          "internalType": "address[]",
          "name": "tokens",
          "type": "address[]"
        },
        {
          "indexed": false,
          "internalType": "uint256[]",
          "name": "amounts",
          "type": "uint256[]"
        }
      ],
      "name": "Swap",
      "type": "event"
    },
    {
      "inputs": [
        {
          "internalType": "address[]",
          "name": "tokens",
          "type": "address[]"
        },
        {
          "internalType": "address",
          "name": "router",
          "type": "address"
        }
      ],
      "name": "approveTokens",
      "outputs": [],
      "stateMutability": "nonpayable",
      "type": "function"
    },
    {
      "inputs": [
        {
          "internalType": "address",
          "name": "sender",
          "type": "address"
        },
        {
          "internalType": "uint256",
          "name": "amount0",
          "type": "uint256"
        },
        {
          "internalType": "uint256",
          "name": "amount1",
          "type": "uint256"
        },
        {
          "internalType": "bytes",
          "name": "data",
          "type": "bytes"
        }
      ],
      "name": "elkCall",
      "outputs": [],
      "stateMutability": "payable",
      "type": "function"
    },
    {
      "inputs": [
        {
          "components": [
            {
              "internalType": "contract IUniswapV2Router02",
              "name": "router_a",
              "type": "address"
            },
            {
              "internalType": "contract IUniswapV2Router02",
              "name": "router_b",
              "type": "address"
            },
            {
              "internalType": "address[]",
              "name": "path_a",
              "type": "address[]"
            },
            {
              "internalType": "address[]",
              "name": "path_b",
              "type": "address[]"
            },
            {
              "internalType": "address[]",
              "name": "path_c",
              "type": "address[]"
            },
            {
              "internalType": "uint256",
              "name": "amountToken_a",
              "type": "uint256"
            }
          ],
          "internalType": "struct Arbitrage.ActionQuote",
          "name": "actionQuote",
          "type": "tuple"
        }
      ],
      "name": "getAmounts",
      "outputs": [
        {
          "internalType": "uint256[]",
          "name": "",
          "type": "uint256[]"
        }
      ],
      "stateMutability": "view",
      "type": "function"
    },
    {
      "inputs": [
        {
          "internalType": "address",
          "name": "sender",
          "type": "address"
        },
        {
          "internalType": "uint256",
          "name": "amount0",
          "type": "uint256"
        },
        {
          "internalType": "uint256",
          "name": "amount1",
          "type": "uint256"
        },
        {
          "internalType": "bytes",
          "name": "data",
          "type": "bytes"
        }
      ],
      "name": "hook",
      "outputs": [],
      "stateMutability": "payable",
      "type": "function"
    },
    {
      "inputs": [],
      "name": "owner",
      "outputs": [
        {
          "internalType": "address",
          "name": "",
          "type": "address"
        }
      ],
      "stateMutability": "view",
      "type": "function"
    },
    {
      "inputs": [
        {
          "internalType": "address",
          "name": "sender",
          "type": "address"
        },
        {
          "internalType": "uint256",
          "name": "amount0",
          "type": "uint256"
        },
        {
          "internalType": "uint256",
          "name": "amount1",
          "type": "uint256"
        },
        {
          "internalType": "bytes",
          "name": "data",
          "type": "bytes"
        }
      ],
      "name": "pancakeCall",
      "outputs": [],
      "stateMutability": "payable",
      "type": "function"
    },
    {
      "inputs": [
        {
          "components": [
            {
              "internalType": "contract IUniswapV2Router02",
              "name": "router_a",
              "type": "address"
            },
            {
              "internalType": "contract IUniswapV2Router02",
              "name": "router_b",
              "type": "address"
            },
            {
              "internalType": "contract IUniswapV2Pair",
              "name": "pair",
              "type": "address"
            },
            {
              "internalType": "address",
              "name": "token_a",
              "type": "address"
            },
            {
              "internalType": "address",
              "name": "token_b",
              "type": "address"
            },
            {
              "internalType": "address",
              "name": "token_c",
              "type": "address"
            },
            {
              "internalType": "address[]",
              "name": "path_a",
              "type": "address[]"
            },
            {
              "internalType": "address[]",
              "name": "path_b",
              "type": "address[]"
            },
            {
              "internalType": "address[]",
              "name": "path_c",
              "type": "address[]"
            },
            {
              "internalType": "uint256",
              "name": "amountToken_a",
              "type": "uint256"
            },
            {
              "internalType": "uint256",
              "name": "amountToPay",
              "type": "uint256"
            },
            {
              "internalType": "uint256",
              "name": "deadline",
              "type": "uint256"
            }
          ],
          "internalType": "struct Arbitrage.Action",
          "name": "_action",
          "type": "tuple"
        }
      ],
      "name": "performArbitrage",
      "outputs": [],
      "stateMutability": "nonpayable",
      "type": "function"
    },
    {
      "inputs": [],
      "name": "renounceOwnership",
      "outputs": [],
      "stateMutability": "nonpayable",
      "type": "function"
    },
    {
      "inputs": [
        {
          "internalType": "address",
          "name": "sender",
          "type": "address"
        },
        {
          "internalType": "uint256",
          "name": "amount0",
          "type": "uint256"
        },
        {
          "internalType": "uint256",
          "name": "amount1",
          "type": "uint256"
        },
        {
          "internalType": "bytes",
          "name": "data",
          "type": "bytes"
        }
      ],
      "name": "soulswapCall",
      "outputs": [],
      "stateMutability": "payable",
      "type": "function"
    },
    {
      "inputs": [
        {
          "internalType": "address",
          "name": "newOwner",
          "type": "address"
        }
      ],
      "name": "transferOwnership",
      "outputs": [],
      "stateMutability": "nonpayable",
      "type": "function"
    },
    {
      "inputs": [
        {
          "internalType": "address",
          "name": "sender",
          "type": "address"
        },
        {
          "internalType": "uint256",
          "name": "amount0",
          "type": "uint256"
        },
        {
          "internalType": "uint256",
          "name": "amount1",
          "type": "uint256"
        },
        {
          "internalType": "bytes",
          "name": "data",
          "type": "bytes"
        }
      ],
      "name": "uniswapV2Call",
      "outputs": [],
      "stateMutability": "payable",
      "type": "function"
    },
    {
      "inputs": [
        {
          "internalType": "address",
          "name": "sender",
          "type": "address"
        },
        {
          "internalType": "uint256",
          "name": "amount0",
          "type": "uint256"
        },
        {
          "internalType": "uint256",
          "name": "amount1",
          "type": "uint256"
        },
        {
          "internalType": "bytes",
          "name": "data",
          "type": "bytes"
        }
      ],
      "name": "wigoswapCall",
      "outputs": [],
      "stateMutability": "payable",
      "type": "function"
    },
    {
      "inputs": [
        {
          "internalType": "address",
          "name": "token",
          "type": "address"
        }
      ],
      "name": "withdrawal",
      "outputs": [],
      "stateMutability": "nonpayable",
      "type": "function"
    }
  ],
  "transactionHash": "0x5545c6caf1c0bd29cd367360bdd1022f8a17597266bdf5eb3c8a56acb3d9a393",
  "args": [],
  "numDeployments": 1,
  "solcInputHash": "b79c8ce1dbf88f4201ca44c94736ea87",
  "bytecode": "0x60806040523480156200001157600080fd5b5062000032620000266200003860201b60201c565b6200004060201b60201c565b62000104565b600033905090565b60008060009054906101000a900473ffffffffffffffffffffffffffffffffffffffff169050816000806101000a81548173ffffffffffffffffffffffffffffffffffffffff021916908373ffffffffffffffffffffffffffffffffffffffff1602179055508173ffffffffffffffffffffffffffffffffffffffff168173ffffffffffffffffffffffffffffffffffffffff167f8be0079c531659141344cd1fd0a4f28419497f9722a3daafe3b4186f6b6457e060405160405180910390a35050565b61262080620001146000396000f3fe6080604052600436106100c25760003560e01c8063848008121161007f5780639a7bff79116100595780639a7bff7914610208578063c224337914610224578063d4f9a2ee1461024d578063f2fde38b14610269576100c2565b806384800812146101985780638da5cb5b146101b457806396131049146101df576100c2565b806307d3513a146100c757806310d1e85c146100e357806348c5b27e146100ff578063616213441461011b5780636270d51014610158578063715018a614610181575b600080fd5b6100e160048036038101906100dc9190611331565b610292565b005b6100fd60048036038101906100f89190611331565b6102a5565b005b61011960048036038101906101149190611331565b6102b8565b005b34801561012757600080fd5b50610142600480360381019061013d9190611644565b6102cb565b60405161014f919061174b565b60405180910390f35b34801561016457600080fd5b5061017f600480360381019061017a9190611792565b6105d7565b005b34801561018d57600080fd5b506101966108b2565b005b6101b260048036038101906101ad9190611331565b6108c6565b005b3480156101c057600080fd5b506101c96108d9565b6040516101d691906117ea565b60405180910390f35b3480156101eb57600080fd5b5061020660048036038101906102019190611805565b610902565b005b610222600480360381019061021d9190611331565b610a23565b005b34801561023057600080fd5b5061024b60048036038101906102469190611888565b610a36565b005b61026760048036038101906102629190611331565b610b3a565b005b34801561027557600080fd5b50610290600480360381019061028b9190611805565b610b4d565b005b61029e84848484610bd1565b5050505050565b6102b184848484610bd1565b5050505050565b6102c484848484610bd1565b5050505050565b60606000600367ffffffffffffffff8111156102ea576102e96113cf565b5b6040519080825280602002602001820160405280156103185781602001602082028036833780820191505090505b509050826000015173ffffffffffffffffffffffffffffffffffffffff1663d06ca61f8460a0015185604001516040518363ffffffff1660e01b81526004016103629291906119b5565b60006040518083038186803b15801561037a57600080fd5b505afa15801561038e573d6000803e3d6000fd5b505050506040513d6000823e3d601f19601f820116820180604052508101906103b79190611abd565b6001815181106103ca576103c9611b06565b5b6020026020010151816000815181106103e6576103e5611b06565b5b602002602001018181525050826020015173ffffffffffffffffffffffffffffffffffffffff1663d06ca61f8260008151811061042657610425611b06565b5b602002602001015185606001516040518363ffffffff1660e01b81526004016104509291906119b5565b60006040518083038186803b15801561046857600080fd5b505afa15801561047c573d6000803e3d6000fd5b505050506040513d6000823e3d601f19601f820116820180604052508101906104a59190611abd565b6001815181106104b8576104b7611b06565b5b6020026020010151816001815181106104d4576104d3611b06565b5b602002602001018181525050826000015173ffffffffffffffffffffffffffffffffffffffff1663d06ca61f8260018151811061051457610513611b06565b5b602002602001015185608001516040518363ffffffff1660e01b815260040161053e9291906119b5565b60006040518083038186803b15801561055657600080fd5b505afa15801561056a573d6000803e3d6000fd5b505050506040513d6000823e3d601f19601f820116820180604052508101906105939190611abd565b6001815181106105a6576105a5611b06565b5b6020026020010151816002815181106105c2576105c1611b06565b5b60200260200101818152505080915050919050565b8061012001358160600160208101906105f09190611805565b73ffffffffffffffffffffffffffffffffffffffff166370a08231306040518263ffffffff1660e01b815260040161062891906117ea565b60206040518083038186803b15801561064057600080fd5b505afa158015610654573d6000803e3d6000fd5b505050506040513d601f19601f820116820180604052508101906106789190611b35565b1115610696576106908161068b90611d16565b610cf3565b506108af565b60008160400160208101906106ab9190611d29565b73ffffffffffffffffffffffffffffffffffffffff16630dfe16816040518163ffffffff1660e01b815260040160206040518083038186803b1580156106f057600080fd5b505afa158015610704573d6000803e3d6000fd5b505050506040513d601f19601f820116820180604052508101906107289190611d6b565b905060008260405160200161073d91906120e3565b60405160208183030381529060405290508260600160208101906107619190611805565b73ffffffffffffffffffffffffffffffffffffffff168273ffffffffffffffffffffffffffffffffffffffff161415610822578260400160208101906107a79190611d29565b73ffffffffffffffffffffffffffffffffffffffff1663022c0d9f846101200135600030856040518563ffffffff1660e01b81526004016107eb94939291906121c8565b600060405180830381600087803b15801561080557600080fd5b505af1158015610819573d6000803e3d6000fd5b505050506108ac565b8260400160208101906108359190611d29565b73ffffffffffffffffffffffffffffffffffffffff1663022c0d9f600085610120013530856040518563ffffffff1660e01b81526004016108799493929190612214565b600060405180830381600087803b15801561089357600080fd5b505af11580156108a7573d6000803e3d6000fd5b505050505b50505b50565b6108ba6110da565b6108c46000611158565b565b6108d284848484610bd1565b5050505050565b60008060009054906101000a900473ffffffffffffffffffffffffffffffffffffffff16905090565b61090a6110da565b8073ffffffffffffffffffffffffffffffffffffffff1663a9059cbb338373ffffffffffffffffffffffffffffffffffffffff166370a08231306040518263ffffffff1660e01b815260040161096091906117ea565b60206040518083038186803b15801561097857600080fd5b505afa15801561098c573d6000803e3d6000fd5b505050506040513d601f19601f820116820180604052508101906109b09190611b35565b6040518363ffffffff1660e01b81526004016109cd929190612260565b602060405180830381600087803b1580156109e757600080fd5b505af11580156109fb573d6000803e3d6000fd5b505050506040513d601f19601f82011682018060405250810190610a1f91906122c1565b5050565b610a2f84848484610bd1565b5050505050565b610a3e6110da565b60005b83839050811015610b3457838382818110610a5f57610a5e611b06565b5b9050602002016020810190610a749190611805565b73ffffffffffffffffffffffffffffffffffffffff1663095ea7b3837fffffffffffffffffffffffffffffffffffffffffffffffffffffffffffffffff6040518363ffffffff1660e01b8152600401610ace929190612260565b602060405180830381600087803b158015610ae857600080fd5b505af1158015610afc573d6000803e3d6000fd5b505050506040513d601f19601f82011682018060405250810190610b2091906122c1565b508080610b2c9061231d565b915050610a41565b50505050565b610b4684848484610bd1565b5050505050565b610b556110da565b600073ffffffffffffffffffffffffffffffffffffffff168173ffffffffffffffffffffffffffffffffffffffff161415610bc5576040517f08c379a0000000000000000000000000000000000000000000000000000000008152600401610bbc906123e9565b60405180910390fd5b610bce81611158565b50565b6000841480610be05750600083145b610bed57610bec612409565b5b60008282810190610bfe9190612438565b90506000610c0b82610cf3565b90508161014001518111610c54576040517f08c379a0000000000000000000000000000000000000000000000000000000008152600401610c4b906124cd565b60405180910390fd5b816060015173ffffffffffffffffffffffffffffffffffffffff1663a9059cbb338461014001516040518363ffffffff1660e01b8152600401610c98929190612260565b602060405180830381600087803b158015610cb257600080fd5b505af1158015610cc6573d6000803e3d6000fd5b505050506040513d601f19601f82011682018060405250810190610cea91906122c1565b50505050505050565b6000806040518060c00160405280846000015173ffffffffffffffffffffffffffffffffffffffff168152602001846020015173ffffffffffffffffffffffffffffffffffffffff1681526020018460c0015181526020018460e001518152602001846101000151815260200184610120015181525090506000610d76826102cb565b90506060846000015173ffffffffffffffffffffffffffffffffffffffff16638803dbee83600081518110610dae57610dad611b06565b5b60200260200101518761012001518860c00151308a61016001516040518663ffffffff1660e01b8152600401610de89594939291906124ed565b600060405180830381600087803b158015610e0257600080fd5b505af1158015610e16573d6000803e3d6000fd5b505050506040513d6000823e3d601f19601f82011682018060405250810190610e3f9190611abd565b90507f775de62829f721d788722b2be1fe795e11540a8740b2236dfc8d8ae3d897d3088560c0015182604051610e76929190612547565b60405180910390a1846020015173ffffffffffffffffffffffffffffffffffffffff16638803dbee83600181518110610eb257610eb1611b06565b5b602002602001015184600081518110610ece57610ecd611b06565b5b60200260200101518860e00151308a61016001516040518663ffffffff1660e01b8152600401610f029594939291906124ed565b600060405180830381600087803b158015610f1c57600080fd5b505af1158015610f30573d6000803e3d6000fd5b505050506040513d6000823e3d601f19601f82011682018060405250810190610f599190611abd565b90507f775de62829f721d788722b2be1fe795e11540a8740b2236dfc8d8ae3d897d3088560e0015182604051610f90929190612547565b60405180910390a1846000015173ffffffffffffffffffffffffffffffffffffffff16638803dbee83600281518110610fcc57610fcb611b06565b5b602002602001015184600181518110610fe857610fe7611b06565b5b6020026020010151886101000151308a61016001516040518663ffffffff1660e01b815260040161101d9594939291906124ed565b600060405180830381600087803b15801561103757600080fd5b505af115801561104b573d6000803e3d6000fd5b505050506040513d6000823e3d601f19601f820116820180604052508101906110749190611abd565b90507f775de62829f721d788722b2be1fe795e11540a8740b2236dfc8d8ae3d897d308856101000151826040516110ac929190612547565b60405180910390a1806001815181106110c8576110c7611b06565b5b60200260200101519350505050919050565b6110e261121c565b73ffffffffffffffffffffffffffffffffffffffff166111006108d9565b73ffffffffffffffffffffffffffffffffffffffff1614611156576040517f08c379a000000000000000000000000000000000000000000000000000000000815260040161114d906125ca565b60405180910390fd5b565b60008060009054906101000a900473ffffffffffffffffffffffffffffffffffffffff169050816000806101000a81548173ffffffffffffffffffffffffffffffffffffffff021916908373ffffffffffffffffffffffffffffffffffffffff1602179055508173ffffffffffffffffffffffffffffffffffffffff168173ffffffffffffffffffffffffffffffffffffffff167f8be0079c531659141344cd1fd0a4f28419497f9722a3daafe3b4186f6b6457e060405160405180910390a35050565b600033905090565b6000604051905090565b600080fd5b600080fd5b600073ffffffffffffffffffffffffffffffffffffffff82169050919050565b600061126382611238565b9050919050565b61127381611258565b811461127e57600080fd5b50565b6000813590506112908161126a565b92915050565b6000819050919050565b6112a981611296565b81146112b457600080fd5b50565b6000813590506112c6816112a0565b92915050565b600080fd5b600080fd5b600080fd5b60008083601f8401126112f1576112f06112cc565b5b8235905067ffffffffffffffff81111561130e5761130d6112d1565b5b60208301915083600182028301111561132a576113296112d6565b5b9250929050565b60008060008060006080868803121561134d5761134c61122e565b5b600061135b88828901611281565b955050602061136c888289016112b7565b945050604061137d888289016112b7565b935050606086013567ffffffffffffffff81111561139e5761139d611233565b5b6113aa888289016112db565b92509250509295509295909350565b600080fd5b6000601f19601f8301169050919050565b7f4e487b7100000000000000000000000000000000000000000000000000000000600052604160045260246000fd5b611407826113be565b810181811067ffffffffffffffff82111715611426576114256113cf565b5b80604052505050565b6000611439611224565b905061144582826113fe565b919050565b600080fd5b600061145a82611258565b9050919050565b61146a8161144f565b811461147557600080fd5b50565b60008135905061148781611461565b92915050565b600067ffffffffffffffff8211156114a8576114a76113cf565b5b602082029050602081019050919050565b60006114cc6114c78461148d565b61142f565b905080838252602082019050602084028301858111156114ef576114ee6112d6565b5b835b8181101561151857806115048882611281565b8452602084019350506020810190506114f1565b5050509392505050565b600082601f830112611537576115366112cc565b5b81356115478482602086016114b9565b91505092915050565b600060c08284031215611566576115656113b9565b5b61157060c061142f565b9050600061158084828501611478565b600083015250602061159484828501611478565b602083015250604082013567ffffffffffffffff8111156115b8576115b761144a565b5b6115c484828501611522565b604083015250606082013567ffffffffffffffff8111156115e8576115e761144a565b5b6115f484828501611522565b606083015250608082013567ffffffffffffffff8111156116185761161761144a565b5b61162484828501611522565b60808301525060a0611638848285016112b7565b60a08301525092915050565b60006020828403121561165a5761165961122e565b5b600082013567ffffffffffffffff81111561167857611677611233565b5b61168484828501611550565b91505092915050565b600081519050919050565b600082825260208201905092915050565b6000819050602082019050919050565b6116c281611296565b82525050565b60006116d483836116b9565b60208301905092915050565b6000602082019050919050565b60006116f88261168d565b6117028185611698565b935061170d836116a9565b8060005b8381101561173e57815161172588826116c8565b9750611730836116e0565b925050600181019050611711565b5085935050505092915050565b6000602082019050818103600083015261176581846116ed565b905092915050565b600080fd5b600061018082840312156117895761178861176d565b5b81905092915050565b6000602082840312156117a8576117a761122e565b5b600082013567ffffffffffffffff8111156117c6576117c5611233565b5b6117d284828501611772565b91505092915050565b6117e481611258565b82525050565b60006020820190506117ff60008301846117db565b92915050565b60006020828403121561181b5761181a61122e565b5b600061182984828501611281565b91505092915050565b60008083601f840112611848576118476112cc565b5b8235905067ffffffffffffffff811115611865576118646112d1565b5b602083019150836020820283011115611881576118806112d6565b5b9250929050565b6000806000604084860312156118a1576118a061122e565b5b600084013567ffffffffffffffff8111156118bf576118be611233565b5b6118cb86828701611832565b935093505060206118de86828701611281565b9150509250925092565b6118f181611296565b82525050565b600081519050919050565b600082825260208201905092915050565b6000819050602082019050919050565b61192c81611258565b82525050565b600061193e8383611923565b60208301905092915050565b6000602082019050919050565b6000611962826118f7565b61196c8185611902565b935061197783611913565b8060005b838110156119a857815161198f8882611932565b975061199a8361194a565b92505060018101905061197b565b5085935050505092915050565b60006040820190506119ca60008301856118e8565b81810360208301526119dc8184611957565b90509392505050565b600067ffffffffffffffff821115611a00576119ff6113cf565b5b602082029050602081019050919050565b600081519050611a20816112a0565b92915050565b6000611a39611a34846119e5565b61142f565b90508083825260208201905060208402830185811115611a5c57611a5b6112d6565b5b835b81811015611a855780611a718882611a11565b845260208401935050602081019050611a5e565b5050509392505050565b600082601f830112611aa457611aa36112cc565b5b8151611ab4848260208601611a26565b91505092915050565b600060208284031215611ad357611ad261122e565b5b600082015167ffffffffffffffff811115611af157611af0611233565b5b611afd84828501611a8f565b91505092915050565b7f4e487b7100000000000000000000000000000000000000000000000000000000600052603260045260246000fd5b600060208284031215611b4b57611b4a61122e565b5b6000611b5984828501611a11565b91505092915050565b6000611b6d82611258565b9050919050565b611b7d81611b62565b8114611b8857600080fd5b50565b600081359050611b9a81611b74565b92915050565b60006101808284031215611bb757611bb66113b9565b5b611bc261018061142f565b90506000611bd284828501611478565b6000830152506020611be684828501611478565b6020830152506040611bfa84828501611b8b565b6040830152506060611c0e84828501611281565b6060830152506080611c2284828501611281565b60808301525060a0611c3684828501611281565b60a08301525060c082013567ffffffffffffffff811115611c5a57611c5961144a565b5b611c6684828501611522565b60c08301525060e082013567ffffffffffffffff811115611c8a57611c8961144a565b5b611c9684828501611522565b60e08301525061010082013567ffffffffffffffff811115611cbb57611cba61144a565b5b611cc784828501611522565b61010083015250610120611cdd848285016112b7565b61012083015250610140611cf3848285016112b7565b61014083015250610160611d09848285016112b7565b6101608301525092915050565b6000611d223683611ba0565b9050919050565b600060208284031215611d3f57611d3e61122e565b5b6000611d4d84828501611b8b565b91505092915050565b600081519050611d658161126a565b92915050565b600060208284031215611d8157611d8061122e565b5b6000611d8f84828501611d56565b91505092915050565b6000611da76020840184611478565b905092915050565b6000819050919050565b6000611dd4611dcf611dca84611238565b611daf565b611238565b9050919050565b6000611de682611db9565b9050919050565b6000611df882611ddb565b9050919050565b611e0881611ded565b82525050565b6000611e1d6020840184611b8b565b905092915050565b6000611e3082611ddb565b9050919050565b611e4081611e25565b82525050565b6000611e556020840184611281565b905092915050565b600080fd5b600080fd5b600080fd5b60008083356001602003843603038112611e8957611e88611e67565b5b83810192508235915060208301925067ffffffffffffffff821115611eb157611eb0611e5d565b5b602082023603841315611ec757611ec6611e62565b5b509250929050565b600082825260208201905092915050565b6000819050919050565b6000602082019050919050565b6000611f038385611ecf565b9350611f0e82611ee0565b8060005b85811015611f4757611f248284611e46565b611f2e8882611932565b9750611f3983611eea565b925050600181019050611f12565b5085925050509392505050565b6000611f6360208401846112b7565b905092915050565b60006101808301611f7f6000840184611d98565b611f8c6000860182611dff565b50611f9a6020840184611d98565b611fa76020860182611dff565b50611fb56040840184611e0e565b611fc26040860182611e37565b50611fd06060840184611e46565b611fdd6060860182611923565b50611feb6080840184611e46565b611ff86080860182611923565b5061200660a0840184611e46565b61201360a0860182611923565b5061202160c0840184611e6c565b85830360c0870152612034838284611ef7565b9250505061204560e0840184611e6c565b85830360e0870152612058838284611ef7565b9250505061206a610100840184611e6c565b85830361010087015261207e838284611ef7565b92505050612090610120840184611f54565b61209e6101208601826116b9565b506120ad610140840184611f54565b6120bb6101408601826116b9565b506120ca610160840184611f54565b6120d86101608601826116b9565b508091505092915050565b600060208201905081810360008301526120fd8184611f6b565b905092915050565b6000819050919050565b600061212a61212561212084612105565b611daf565b611296565b9050919050565b61213a8161210f565b82525050565b600081519050919050565b600082825260208201905092915050565b60005b8381101561217a57808201518184015260208101905061215f565b83811115612189576000848401525b50505050565b600061219a82612140565b6121a4818561214b565b93506121b481856020860161215c565b6121bd816113be565b840191505092915050565b60006080820190506121dd60008301876118e8565b6121ea6020830186612131565b6121f760408301856117db565b8181036060830152612209818461218f565b905095945050505050565b60006080820190506122296000830187612131565b61223660208301866118e8565b61224360408301856117db565b8181036060830152612255818461218f565b905095945050505050565b600060408201905061227560008301856117db565b61228260208301846118e8565b9392505050565b60008115159050919050565b61229e81612289565b81146122a957600080fd5b50565b6000815190506122bb81612295565b92915050565b6000602082840312156122d7576122d661122e565b5b60006122e5848285016122ac565b91505092915050565b7f4e487b7100000000000000000000000000000000000000000000000000000000600052601160045260246000fd5b600061232882611296565b91507fffffffffffffffffffffffffffffffffffffffffffffffffffffffffffffffff82141561235b5761235a6122ee565b5b600182019050919050565b600082825260208201905092915050565b7f4f776e61626c653a206e6577206f776e657220697320746865207a65726f206160008201527f6464726573730000000000000000000000000000000000000000000000000000602082015250565b60006123d3602683612366565b91506123de82612377565b604082019050919050565b60006020820190508181036000830152612402816123c6565b9050919050565b7f4e487b7100000000000000000000000000000000000000000000000000000000600052600160045260246000fd5b60006020828403121561244e5761244d61122e565b5b600082013567ffffffffffffffff81111561246c5761246b611233565b5b61247884828501611ba0565b91505092915050565b7f6e6f7420656e6f75676800000000000000000000000000000000000000000000600082015250565b60006124b7600a83612366565b91506124c282612481565b602082019050919050565b600060208201905081810360008301526124e6816124aa565b9050919050565b600060a08201905061250260008301886118e8565b61250f60208301876118e8565b81810360408301526125218186611957565b905061253060608301856117db565b61253d60808301846118e8565b9695505050505050565b600060408201905081810360008301526125618185611957565b9050818103602083015261257581846116ed565b90509392505050565b7f4f776e61626c653a2063616c6c6572206973206e6f7420746865206f776e6572600082015250565b60006125b4602083612366565b91506125bf8261257e565b602082019050919050565b600060208201905081810360008301526125e3816125a7565b905091905056fea264697066735822122042f7258637cb0db25fd5fd0279c3a025bf46a4dd1da9901443ed6660867436ab64736f6c63430008090033",
  "devdoc": {
    "kind": "dev",
    "methods": {
      "owner()": {
        "details": "Returns the address of the current owner."
      },
      "renounceOwnership()": {
        "details": "Leaves the contract without owner. It will not be possible to call `onlyOwner` functions anymore. Can only be called by the current owner. NOTE: Renouncing ownership will leave the contract without an owner, thereby removing any functionality that is only available to the owner."
      },
      "transferOwnership(address)": {
        "details": "Transfers ownership of the contract to a new account (`newOwner`). Can only be called by the current owner."
      }
    },
    "version": 1
  },
  "userdoc": {
    "kind": "user",
    "methods": {},
    "version": 1
  },
  "storageLayout": {
    "storage": [
      {
        "astId": 7,
        "contract": "contracts/Arbitrage.sol:Arbitrage",
        "label": "_owner",
        "offset": 0,
        "slot": "0",
        "type": "t_address"
      }
    ],
    "types": {
      "t_address": {
        "encoding": "inplace",
        "label": "address",
        "numberOfBytes": "20"
      }
    }
  }
}