{
  "address": "0xb94ef29988123d218A5237460dFB63f6bbE8D24B",
  "abi": [
    {
      "inputs": [
        {
          "components": [
            {
              "internalType": "contract IUniswapV2Router02",
              "name": "router_a",
              "type": "address"
            },
            {
              "internalType": "contract IUniswapV2Router02",
              "name": "router_b",
              "type": "address"
            },
            {
              "internalType": "address",
              "name": "token_a",
              "type": "address"
            },
            {
              "internalType": "address",
              "name": "token_b",
              "type": "address"
            },
            {
              "internalType": "address",
              "name": "token_c",
              "type": "address"
            },
            {
              "internalType": "address[]",
              "name": "path_a",
              "type": "address[]"
            },
            {
              "internalType": "address[]",
              "name": "path_b",
              "type": "address[]"
            },
            {
              "internalType": "address[]",
              "name": "path_c",
              "type": "address[]"
            },
            {
              "internalType": "uint256",
              "name": "amountIn",
              "type": "uint256"
            }
          ],
          "internalType": "struct Action",
          "name": "action",
          "type": "tuple"
        }
      ],
      "name": "performArbitrage",
      "outputs": [
        {
          "internalType": "uint256[]",
          "name": "",
          "type": "uint256[]"
        }
      ],
      "stateMutability": "view",
      "type": "function"
    }
  ],
  "transactionHash": "0x1d536d9fe8763e9ecaf79c13218e8f18617016c31c298b063a72ee77ecf3616f",
  "args": [],
  "numDeployments": 1,
  "solcInputHash": "59c78add18c117322b0c9b5cf21bbb6f",
  "bytecode": "0x608060405234801561001057600080fd5b5061094c806100206000396000f3fe608060405234801561001057600080fd5b506004361061002b5760003560e01c80635446fee014610030575b600080fd5b61004a600480360381019061004591906103a7565b610060565b60405161005791906104b8565b60405180910390f35b606080826000016020810190610076919061054a565b73ffffffffffffffffffffffffffffffffffffffff1663d06ca61f846101000135858060a001906100a79190610586565b6040518463ffffffff1660e01b81526004016100c5939291906106e7565b60006040518083038186803b1580156100dd57600080fd5b505afa1580156100f1573d6000803e3d6000fd5b505050506040513d6000823e3d601f19601f8201168201806040525081019061011a919061089e565b60018151811061012d5761012c6108e7565b5b602002602001015181600081518110610149576101486108e7565b5b602002602001018181525050826020016020810190610168919061054a565b73ffffffffffffffffffffffffffffffffffffffff1663d06ca61f82600081518110610197576101966108e7565b5b6020026020010151858060c001906101af9190610586565b6040518463ffffffff1660e01b81526004016101cd939291906106e7565b60006040518083038186803b1580156101e557600080fd5b505afa1580156101f9573d6000803e3d6000fd5b505050506040513d6000823e3d601f19601f82011682018060405250810190610222919061089e565b600181518110610235576102346108e7565b5b602002602001015181600181518110610251576102506108e7565b5b602002602001018181525050826000016020810190610270919061054a565b73ffffffffffffffffffffffffffffffffffffffff1663d06ca61f8260018151811061029f5761029e6108e7565b5b6020026020010151858060e001906102b79190610586565b6040518463ffffffff1660e01b81526004016102d5939291906106e7565b60006040518083038186803b1580156102ed57600080fd5b505afa158015610301573d6000803e3d6000fd5b505050506040513d6000823e3d601f19601f8201168201806040525081019061032a919061089e565b60018151811061033d5761033c6108e7565b5b602002602001015181600281518110610359576103586108e7565b5b60200260200101818152505080915050919050565b6000604051905090565b600080fd5b600080fd5b600080fd5b6000610120828403121561039e5761039d610382565b5b81905092915050565b6000602082840312156103bd576103bc610378565b5b600082013567ffffffffffffffff8111156103db576103da61037d565b5b6103e784828501610387565b91505092915050565b600081519050919050565b600082825260208201905092915050565b6000819050602082019050919050565b6000819050919050565b61042f8161041c565b82525050565b60006104418383610426565b60208301905092915050565b6000602082019050919050565b6000610465826103f0565b61046f81856103fb565b935061047a8361040c565b8060005b838110156104ab5781516104928882610435565b975061049d8361044d565b92505060018101905061047e565b5085935050505092915050565b600060208201905081810360008301526104d2818461045a565b905092915050565b600073ffffffffffffffffffffffffffffffffffffffff82169050919050565b6000610505826104da565b9050919050565b6000610517826104fa565b9050919050565b6105278161050c565b811461053257600080fd5b50565b6000813590506105448161051e565b92915050565b6000602082840312156105605761055f610378565b5b600061056e84828501610535565b91505092915050565b600080fd5b600080fd5b600080fd5b600080833560016020038436030381126105a3576105a2610577565b5b80840192508235915067ffffffffffffffff8211156105c5576105c461057c565b5b6020830192506020820236038313156105e1576105e0610581565b5b509250929050565b6105f28161041c565b82525050565b600082825260208201905092915050565b6000819050919050565b61061c816104fa565b82525050565b600061062e8383610613565b60208301905092915050565b610643816104fa565b811461064e57600080fd5b50565b6000813590506106608161063a565b92915050565b60006106756020840184610651565b905092915050565b6000602082019050919050565b600061069683856105f8565b93506106a182610609565b8060005b858110156106da576106b78284610666565b6106c18882610622565b97506106cc8361067d565b9250506001810190506106a5565b5085925050509392505050565b60006040820190506106fc60008301866105e9565b818103602083015261070f81848661068a565b9050949350505050565b600080fd5b6000601f19601f8301169050919050565b7f4e487b7100000000000000000000000000000000000000000000000000000000600052604160045260246000fd5b6107678261071e565b810181811067ffffffffffffffff821117156107865761078561072f565b5b80604052505050565b600061079961036e565b90506107a5828261075e565b919050565b600067ffffffffffffffff8211156107c5576107c461072f565b5b602082029050602081019050919050565b600080fd5b6107e48161041c565b81146107ef57600080fd5b50565b600081519050610801816107db565b92915050565b600061081a610815846107aa565b61078f565b9050808382526020820190506020840283018581111561083d5761083c6107d6565b5b835b81811015610866578061085288826107f2565b84526020840193505060208101905061083f565b5050509392505050565b600082601f83011261088557610884610719565b5b8151610895848260208601610807565b91505092915050565b6000602082840312156108b4576108b3610378565b5b600082015167ffffffffffffffff8111156108d2576108d161037d565b5b6108de84828501610870565b91505092915050565b7f4e487b7100000000000000000000000000000000000000000000000000000000600052603260045260246000fdfea2646970667358221220aaab1b0477d7c3540b4e7ae4c07e3a7523e1519c7cc9a9ddb6cb53045b790ca064736f6c63430008090033",
  "devdoc": {
    "kind": "dev",
    "methods": {},
    "version": 1
  },
  "userdoc": {
    "kind": "user",
    "methods": {},
    "version": 1
  },
  "storageLayout": {
    "storage": [],
    "types": null
  }
}